:060000000A128A110E280D
:10000800FE00030EFB000A08FC007F08FD000A1230
:100018008A114E280A128A1111280A128A110323FA
:100028000A128A11F5000A128A1104230A128A1187
:10003800F6000A128A1105230A128A11F7000A1219
:100048008A1106230A128A11F8000A128A11072354
:100058000A128A11F90083132030840060300A12D2
:100068008A11E1220A128A11F001F101F201F30169
:10007800F40183010A128A11122B4128FF00003073
:100088008A007F08820747280A128A11162B0A124B
:100098008A11FD2A0B1E512852285B288B1C5528D3
:1000A80056285B280A128A1126230A128A118B1DE8
:1000B8005E285F2875280B1C622863287528831220
:1000C8000313061E6828692875287803031D6D2800
:1000D8006E287528F80100300A128A11D8220A12EF
:1000E8008A118B1D7828792890280B1C7C287D285C
:1000F800902883120313061A8228832890287808E8
:10010800031D8728882890280130F80001300A123A
:100118008A11D8220A128A118B1D93289428AA289A
:100128000B1C97289828AA2883120313861E9D283B
:100138009E28AA287703031DA228A328AA28F70126
:1001480000300A128A11CF220A128A118B1DAD289B
:10015800AE28C5280B1CB128B228C5288312031362
:10016800861AB728B828C5287708031DBC28BD28D3
:10017800C5280130F70001300A128A11CF220A126D
:100188008A118B1DC828C928DF280B1CCC28CD282C
:10019800DF2883120313061FD228D328DF2876030B
:1001A800031DD728D828DF28F60100300A128A1143
:1001B800C6220A128A118B1DE228E328FA280B1C92
:1001C800E628E728FA2883120313061BEC28ED28F3
:1001D800FA287608031DF128F228FA280130F600DB
:1001E80001300A128A11C6220A128A118B1DFD28B3
:1001F800FE2814290B1C0129022914298312031330
:10020800861F0729082914297503031D0C290D29A0
:100218001429F50100300A128A11BD220A128A1126
:100228008B1D172918292F290B1C1B291C292F293D
:1002380083120313861B212922292F297508031DE0
:10024800262927292F290130F50001300A128A11A1
:10025800BD220A128A11831603130C1F342935296B
:100268004029831203130C1F3A293B2940290A12FB
:100278008A1122230A128A118B1E432944294D29E7
:100288000B1D472948294D290A128A11F7220A12FB
:100298008A11831603130C1C522953295E298312D1
:1002A80003130C1C582959295E290A128A11E922BC
:1002B8000A128A11831603138C1C632964296F2977
:1002C800831203138C1C69296A296F290A128A115F
:1002D800F1220A128A11831603130C1E7429752938
:1002E8008029831203130C1E7A297B2980290A127C
:1002F8008A1128230A128A11831603138C1E852952
:1003080086299129831203138C1E8B298C29912904
:100318000A128A1171220A128A11831603138C1D7C
:1003280096299729A729831203138C1D9C299D2997
:10033800A7290A128A11AF220A128A110A128A11EF
:1003480094220A128A11831603138D1DAC29AD2934
:10035800B829831203138D1DB229B329B8290A12AB
:100368008A1108230A128A11831603138C1DBD29CA
:10037800BE29C929831203138C1DC329C429C9297D
:100388000A128A11AF220A128A11831603130C1D4E
:10039800CE29CF29DA29831203130C1DD429D52994
:1003A800DA290A128A111E230A128A1183160313E4
:1003B8000D1CDF29E029EB29831203130D1CE52905
:1003C800E629EB290A128A111A230A128A117D08D2
:1003D800FF007C088A007B0E8300FE0E7E0E09005B
:1004000002308A000408840A820700343734383402
:1004100039342F343434353436342A3431343234A8
:1004200033342D34233430343D342B34203454349D
:1004300020343D34203425346434203420342034B6
:1004400020342034003420344134783420343D3496
:1004500020342534643420342034203420340034D3
:1004600020344734783420343D3420342534643407
:100470002034203420342034003420344134793482
:1004800020343D3420342534643420342034203466
:100490002034003420344734793420343D3420343F
:1004A0002534643420342034203420340034203483
:1004B00041347A3420343D342034253464342034BB
:1004C0002034203420340034203447347A3420342B
:1004D0003D34203425346434203420342034203416
:1004E000003473080319752A762A822A83120313AB
:1004F000181D7B2A7C2A822A73080A128A1142203C
:100500000A128A1172080319862A872A932A8312EB
:100510000313981C8C2A8D2A932A72080A128A11B6
:1005200042200A128A110800831203138C115B08FF
:1005300003199B2A9C2A9F2A8316031314088312EB
:100540005A080319A42AA52AA82A831603131408F3
:100550008312141FAC2AAD2AAE2A1413080083128A
:1005600003138C11941FB52AB62AB72A9413141FAB
:10057000BA2ABB2ABC2A14130800FA000B107A0806
:10058000031DC32AC42AC52AC52A0800FA000B1075
:100590007A08031DCC2ACD2ACE2ACE2A0800FA00DA
:1005A0000B107A08031DD52AD62AD72AD72A080085
:1005B000FA000B107A08031DDE2ADF2AE02AE02A5F
:1005C000080064008001840A04060319003404064C
:1005D000E22A831203130C1071088F0070088E003A
:1005E0000800831203138C104808910008000B11B7
:1005F000831203134408810008000A128A110D2394
:100600000A128A1108000134013401340134FF3424
:10061000831203138D11941308008312031318120D
:1006200018160800122B0A128A110E2883120313BF
:100630001A080800831203130D1008008312031315
:100640000C110800831203130C1308008B10080010
:020650000800A0
:08400000FF3FFF3FFF3FFF3FC0
:02400E003A3F37
:00000001FF
